{
  "address": "0x18A6dc748E1AcD6d706DB3fEcCf8a095547aDe9c",
  "abi": [
    {
      "anonymous": false,
      "inputs": [
        {
          "indexed": true,
          "internalType": "address",
          "name": "account",
          "type": "address"
        }
      ],
      "name": "AccountStorageCleared",
      "type": "event"
    },
    {
      "inputs": [],
      "name": "clearSafeStorage",
      "outputs": [],
      "stateMutability": "nonpayable",
      "type": "function"
    },
    {
      "inputs": [],
      "name": "clearSafeStorageDelegateCallReciever",
      "outputs": [],
      "stateMutability": "nonpayable",
      "type": "function"
    },
    {
      "inputs": [
        {
          "internalType": "bytes32[]",
          "name": "slots",
          "type": "bytes32[]"
        }
      ],
      "name": "clearStorageSlots",
      "outputs": [],
      "stateMutability": "nonpayable",
      "type": "function"
    }
  ],
  "args": [],
  "numDeployments": 3,
  "solcInputHash": "1080ae6c3580d5deeb89e34c12e153e9",
  "bytecode": "0x60a0604052348015600f57600080fd5b503060805260805161060b61002e600039600060c8015261060b6000f3fe608060405234801561001057600080fd5b50600436106100415760003560e01c806324f30d311461004657806360e61bd014610050578063af535ca914610063575b600080fd5b61004e61006b565b005b61004e61005e3660046104bb565b610075565b61004e6100b1565b6100736101a0565b565b60005b81518110156100ad576000828281518110610095576100956105a6565b60209081029190910101516000905550600101610078565b5050565b73ffffffffffffffffffffffffffffffffffffffff7f000000000000000000000000000000000000000000000000000000000000000016300361006b576040517f08c379a000000000000000000000000000000000000000000000000000000000815260206004820152604b60248201527f636c6561725361666553746f7261676544656c656761746543616c6c5265636960448201527f657665722073686f756c64206f6e6c792062652063616c6c656420766961206460648201527f656c656761746563616c6c000000000000000000000000000000000000000000608482015260a40160405180910390fd5b600080547fffffffffffffffffffffffff00000000000000000000000000000000000000001690556101d0610260565b6101d8610376565b600060038190556004819055600581905560068190557f6c9a6c4a39284e37ed1cf53d337577d14212a4870fb976a4366c693b939918d58190557f4a204f620c8c5ccdca3fd54d003badd85ba500436a431f0cbda4f558c93c34c881905560405130917f9fe882a15d23ea569936bd044460fe3a10f89eca83ee94d343ce024620eb28dc91a2565b600160008190526020527fcc69885fda6bcc1a4ace058b4a62bf5e179ea78fd58a1ccd71c22cc9b688792f5473ffffffffffffffffffffffffffffffffffffffff16806102aa5750565b60015b73ffffffffffffffffffffffffffffffffffffffff8216600114610321575073ffffffffffffffffffffffffffffffffffffffff808216600090815260016020526040902080547fffffffffffffffffffffffff0000000000000000000000000000000000000000811690915516906102ad565b5050600160008190526020527fcc69885fda6bcc1a4ace058b4a62bf5e179ea78fd58a1ccd71c22cc9b688792f80547fffffffffffffffffffffffff0000000000000000000000000000000000000000169055565b600160005260026020527fe90b7bceb6e7df5418fb78d8ee546e97c83a08bbccc01a0644d599ccd2a7c2e05473ffffffffffffffffffffffffffffffffffffffff16806103c05750565b60015b73ffffffffffffffffffffffffffffffffffffffff8216600114610437575073ffffffffffffffffffffffffffffffffffffffff808216600090815260026020526040902080547fffffffffffffffffffffffff0000000000000000000000000000000000000000811690915516906103c3565b5050600160005260026020527fe90b7bceb6e7df5418fb78d8ee546e97c83a08bbccc01a0644d599ccd2a7c2e080547fffffffffffffffffffffffff0000000000000000000000000000000000000000169055565b7f4e487b7100000000000000000000000000000000000000000000000000000000600052604160045260246000fd5b6000602082840312156104cd57600080fd5b813567ffffffffffffffff8111156104e457600080fd5b8201601f810184136104f557600080fd5b803567ffffffffffffffff81111561050f5761050f61048c565b8060051b6040517fffffffffffffffffffffffffffffffffffffffffffffffffffffffffffffffe0603f830116810181811067ffffffffffffffff8211171561055a5761055a61048c565b60405291825260208184018101929081018784111561057857600080fd5b6020850194505b8385101561059b5784358082526020958601959093500161057f565b509695505050505050565b7f4e487b7100000000000000000000000000000000000000000000000000000000600052603260045260246000fdfea264697066735822122082f2d05749c49d1ec66b1e9893b1e91e40e5dbcacf44511d72414ab436d1a2c264736f6c634300081b0033",
  "devdoc": {
    "kind": "dev",
    "methods": {},
    "version": 1
  },
  "userdoc": {
    "kind": "user",
    "methods": {},
    "version": 1
  },
  "storageLayout": {
    "storage": [
      {
        "astId": 887,
        "contract": "contracts/ClearStorageHelper.sol:ClearStorageHelper",
        "label": "singleton",
        "offset": 0,
        "slot": "0",
        "type": "t_address"
      },
      {
        "astId": 891,
        "contract": "contracts/ClearStorageHelper.sol:ClearStorageHelper",
        "label": "modules",
        "offset": 0,
        "slot": "1",
        "type": "t_mapping(t_address,t_address)"
      },
      {
        "astId": 895,
        "contract": "contracts/ClearStorageHelper.sol:ClearStorageHelper",
        "label": "owners",
        "offset": 0,
        "slot": "2",
        "type": "t_mapping(t_address,t_address)"
      },
      {
        "astId": 897,
        "contract": "contracts/ClearStorageHelper.sol:ClearStorageHelper",
        "label": "ownerCount",
        "offset": 0,
        "slot": "3",
        "type": "t_uint256"
      },
      {
        "astId": 899,
        "contract": "contracts/ClearStorageHelper.sol:ClearStorageHelper",
        "label": "threshold",
        "offset": 0,
        "slot": "4",
        "type": "t_uint256"
      },
      {
        "astId": 901,
        "contract": "contracts/ClearStorageHelper.sol:ClearStorageHelper",
        "label": "nonce",
        "offset": 0,
        "slot": "5",
        "type": "t_uint256"
      },
      {
        "astId": 903,
        "contract": "contracts/ClearStorageHelper.sol:ClearStorageHelper",
        "label": "_deprecatedDomainSeparator",
        "offset": 0,
        "slot": "6",
        "type": "t_bytes32"
      },
      {
        "astId": 907,
        "contract": "contracts/ClearStorageHelper.sol:ClearStorageHelper",
        "label": "signedMessages",
        "offset": 0,
        "slot": "7",
        "type": "t_mapping(t_bytes32,t_uint256)"
      },
      {
        "astId": 913,
        "contract": "contracts/ClearStorageHelper.sol:ClearStorageHelper",
        "label": "approvedHashes",
        "offset": 0,
        "slot": "8",
        "type": "t_mapping(t_address,t_mapping(t_bytes32,t_uint256))"
      }
    ],
    "types": {
      "t_address": {
        "encoding": "inplace",
        "label": "address",
        "numberOfBytes": "20"
      },
      "t_bytes32": {
        "encoding": "inplace",
        "label": "bytes32",
        "numberOfBytes": "32"
      },
      "t_mapping(t_address,t_address)": {
        "encoding": "mapping",
        "key": "t_address",
        "label": "mapping(address => address)",
        "numberOfBytes": "32",
        "value": "t_address"
      },
      "t_mapping(t_address,t_mapping(t_bytes32,t_uint256))": {
        "encoding": "mapping",
        "key": "t_address",
        "label": "mapping(address => mapping(bytes32 => uint256))",
        "numberOfBytes": "32",
        "value": "t_mapping(t_bytes32,t_uint256)"
      },
      "t_mapping(t_bytes32,t_uint256)": {
        "encoding": "mapping",
        "key": "t_bytes32",
        "label": "mapping(bytes32 => uint256)",
        "numberOfBytes": "32",
        "value": "t_uint256"
      },
      "t_uint256": {
        "encoding": "inplace",
        "label": "uint256",
        "numberOfBytes": "32"
      }
    }
  }
}