{
  "address": "0x0F71638a741E7fe77E6A2D9986BA175b95F209d4",
  "abi": [
    {
      "inputs": [
        {
          "internalType": "address",
          "name": "sender",
          "type": "address"
        },
        {
          "internalType": "address",
          "name": "expected",
          "type": "address"
        }
      ],
      "name": "InvalidSender",
      "type": "error"
    },
    {
      "anonymous": false,
      "inputs": [
        {
          "indexed": true,
          "internalType": "address",
          "name": "account",
          "type": "address"
        }
      ],
      "name": "AccountStorageCleared",
      "type": "event"
    },
    {
      "anonymous": false,
      "inputs": [],
      "name": "OnRedelegation",
      "type": "event"
    },
    {
      "inputs": [],
      "name": "accountId",
      "outputs": [
        {
          "internalType": "string",
          "name": "",
          "type": "string"
        }
      ],
      "stateMutability": "view",
      "type": "function"
    },
    {
      "inputs": [],
      "name": "accountStorageBases",
      "outputs": [
        {
          "internalType": "bytes32[]",
          "name": "",
          "type": "bytes32[]"
        }
      ],
      "stateMutability": "view",
      "type": "function"
    },
    {
      "inputs": [],
      "name": "clearSafeStorageDelegateCallReciever",
      "outputs": [],
      "stateMutability": "nonpayable",
      "type": "function"
    },
    {
      "inputs": [
        {
          "internalType": "contract ISafe",
          "name": "safe",
          "type": "address"
        },
        {
          "internalType": "bytes",
          "name": "message",
          "type": "bytes"
        }
      ],
      "name": "encodeMessageDataForSafe",
      "outputs": [
        {
          "internalType": "bytes",
          "name": "",
          "type": "bytes"
        }
      ],
      "stateMutability": "view",
      "type": "function"
    },
    {
      "inputs": [
        {
          "internalType": "bytes",
          "name": "message",
          "type": "bytes"
        }
      ],
      "name": "getMessageHash",
      "outputs": [
        {
          "internalType": "bytes32",
          "name": "",
          "type": "bytes32"
        }
      ],
      "stateMutability": "view",
      "type": "function"
    },
    {
      "inputs": [
        {
          "internalType": "contract ISafe",
          "name": "safe",
          "type": "address"
        },
        {
          "internalType": "bytes",
          "name": "message",
          "type": "bytes"
        }
      ],
      "name": "getMessageHashForSafe",
      "outputs": [
        {
          "internalType": "bytes32",
          "name": "",
          "type": "bytes32"
        }
      ],
      "stateMutability": "view",
      "type": "function"
    },
    {
      "inputs": [],
      "name": "getModules",
      "outputs": [
        {
          "internalType": "address[]",
          "name": "",
          "type": "address[]"
        }
      ],
      "stateMutability": "view",
      "type": "function"
    },
    {
      "inputs": [
        {
          "internalType": "bytes32",
          "name": "_dataHash",
          "type": "bytes32"
        },
        {
          "internalType": "bytes",
          "name": "_signature",
          "type": "bytes"
        }
      ],
      "name": "isValidSignature",
      "outputs": [
        {
          "internalType": "bytes4",
          "name": "",
          "type": "bytes4"
        }
      ],
      "stateMutability": "view",
      "type": "function"
    },
    {
      "inputs": [
        {
          "internalType": "address",
          "name": "",
          "type": "address"
        },
        {
          "internalType": "address",
          "name": "",
          "type": "address"
        },
        {
          "internalType": "uint256[]",
          "name": "",
          "type": "uint256[]"
        },
        {
          "internalType": "uint256[]",
          "name": "",
          "type": "uint256[]"
        },
        {
          "internalType": "bytes",
          "name": "",
          "type": "bytes"
        }
      ],
      "name": "onERC1155BatchReceived",
      "outputs": [
        {
          "internalType": "bytes4",
          "name": "",
          "type": "bytes4"
        }
      ],
      "stateMutability": "pure",
      "type": "function"
    },
    {
      "inputs": [
        {
          "internalType": "address",
          "name": "",
          "type": "address"
        },
        {
          "internalType": "address",
          "name": "",
          "type": "address"
        },
        {
          "internalType": "uint256",
          "name": "",
          "type": "uint256"
        },
        {
          "internalType": "uint256",
          "name": "",
          "type": "uint256"
        },
        {
          "internalType": "bytes",
          "name": "",
          "type": "bytes"
        }
      ],
      "name": "onERC1155Received",
      "outputs": [
        {
          "internalType": "bytes4",
          "name": "",
          "type": "bytes4"
        }
      ],
      "stateMutability": "pure",
      "type": "function"
    },
    {
      "inputs": [
        {
          "internalType": "address",
          "name": "",
          "type": "address"
        },
        {
          "internalType": "address",
          "name": "",
          "type": "address"
        },
        {
          "internalType": "uint256",
          "name": "",
          "type": "uint256"
        },
        {
          "internalType": "bytes",
          "name": "",
          "type": "bytes"
        }
      ],
      "name": "onERC721Received",
      "outputs": [
        {
          "internalType": "bytes4",
          "name": "",
          "type": "bytes4"
        }
      ],
      "stateMutability": "pure",
      "type": "function"
    },
    {
      "inputs": [],
      "name": "onRedelegation",
      "outputs": [
        {
          "internalType": "bool",
          "name": "",
          "type": "bool"
        }
      ],
      "stateMutability": "nonpayable",
      "type": "function"
    },
    {
      "inputs": [
        {
          "internalType": "address",
          "name": "targetContract",
          "type": "address"
        },
        {
          "internalType": "bytes",
          "name": "calldataPayload",
          "type": "bytes"
        }
      ],
      "name": "simulate",
      "outputs": [
        {
          "internalType": "bytes",
          "name": "response",
          "type": "bytes"
        }
      ],
      "stateMutability": "nonpayable",
      "type": "function"
    },
    {
      "inputs": [
        {
          "internalType": "bytes4",
          "name": "interfaceId",
          "type": "bytes4"
        }
      ],
      "name": "supportsInterface",
      "outputs": [
        {
          "internalType": "bool",
          "name": "",
          "type": "bool"
        }
      ],
      "stateMutability": "view",
      "type": "function"
    },
    {
      "inputs": [
        {
          "internalType": "address",
          "name": "",
          "type": "address"
        },
        {
          "internalType": "address",
          "name": "",
          "type": "address"
        },
        {
          "internalType": "address",
          "name": "",
          "type": "address"
        },
        {
          "internalType": "uint256",
          "name": "",
          "type": "uint256"
        },
        {
          "internalType": "bytes",
          "name": "",
          "type": "bytes"
        },
        {
          "internalType": "bytes",
          "name": "",
          "type": "bytes"
        }
      ],
      "name": "tokensReceived",
      "outputs": [],
      "stateMutability": "pure",
      "type": "function"
    }
  ],
  "args": [],
  "numDeployments": 3,
  "solcInputHash": "1080ae6c3580d5deeb89e34c12e153e9",
  "bytecode": "0x60a0604052348015600f57600080fd5b503060805260805161165e61002f60003960006108f3015261165e6000f3fe608060405234801561001057600080fd5b50600436106100f45760003560e01c80636ac2478411610097578063b2494df311610066578063b2494df31461026d578063bc197c8114610282578063bd61951d146102bd578063f23a6e61146102d057600080fd5b80636ac24784146102005780638626e88b146102135780639cfd7cff1461022c578063af535ca91461026557600080fd5b8063150b7a02116100d3578063150b7a021461015c5780631626ba7e146101c557806323031640146101d8578063492a88a2146101f857600080fd5b806223de29146100f957806301ffc9a7146101135780630a1028c41461013b575b600080fd5b610111610107366004610e40565b5050505050505050565b005b610126610121366004610ef6565b610309565b60405190151581526020015b60405180910390f35b61014e610149366004611044565b6103ee565b604051908152602001610132565b61019461016a366004611081565b7f150b7a020000000000000000000000000000000000000000000000000000000095945050505050565b6040517fffffffff000000000000000000000000000000000000000000000000000000009091168152602001610132565b6101946101d33660046110f4565b6103fa565b6101eb6101e6366004611140565b6105f7565b60405161013291906111f4565b61012661072e565b61014e61020e366004611140565b6108c1565b6040805160008152602081019182905261013291611207565b60408051808201909152601781527f53616665536d6172744163636f756e742e76312e342e3100000000000000000060208201526101eb565b6101116108dc565b6102756109d1565b604051610132919061124a565b6101946102903660046112dd565b7fbc197c810000000000000000000000000000000000000000000000000000000098975050505050505050565b6101eb6102cb366004611388565b610a83565b6101946102de3660046113c4565b7ff23a6e61000000000000000000000000000000000000000000000000000000009695505050505050565b60007fffffffff0000000000000000000000000000000000000000000000000000000082167f4e2312e000000000000000000000000000000000000000000000000000000000148061039c57507fffffffff0000000000000000000000000000000000000000000000000000000082167f150b7a0200000000000000000000000000000000000000000000000000000000145b806103e857507fffffffff0000000000000000000000000000000000000000000000000000000082167f01ffc9a700000000000000000000000000000000000000000000000000000000145b92915050565b60006103e833836108c1565b600080339050600061042d828760405160200161041991815260200190565b6040516020818303038152906040526105f7565b805160208201209091506000859003610542576040517f5ae6bd370000000000000000000000000000000000000000000000000000000081526004810182905273ffffffffffffffffffffffffffffffffffffffff841690635ae6bd3790602401602060405180830381865afa1580156104ab573d6000803e3d6000fd5b505050506040513d601f19601f820116820180604052508101906104cf9190611440565b60000361053d576040517f08c379a000000000000000000000000000000000000000000000000000000000815260206004820152601160248201527f48617368206e6f7420617070726f76656400000000000000000000000000000060448201526064015b60405180910390fd5b6105c9565b6040517fed516d5100000000000000000000000000000000000000000000000000000000815273ffffffffffffffffffffffffffffffffffffffff84169063ed516d51906105989084908a908a90600401611459565b60006040518083038186803b1580156105b057600080fd5b505afa1580156105c4573d6000803e3d6000fd5b505050505b507f1626ba7e00000000000000000000000000000000000000000000000000000000925050505b9392505050565b606060007f60b3cbf8b4a223d68d641b3b6ddf9a298e7f33710cf3d3a9d1146b5a6150fbca60001b8380519060200120604051602001610641929190918252602082015260400190565b604051602081830303815290604052805190602001209050601960f81b600160f81b8573ffffffffffffffffffffffffffffffffffffffff1663f698da256040518163ffffffff1660e01b8152600401602060405180830381865afa1580156106ae573d6000803e3d6000fd5b505050506040513d601f19601f820116820180604052508101906106d29190611440565b6040517fff00000000000000000000000000000000000000000000000000000000000000938416602082015292909116602183015260228201526042810182905260620160405160208183030381529060405291505092915050565b6000337fffffffffffffffffffffffffffffffffffffffffffffffffffffffffffffffec36013560601c146107bd576040517fe1130dba0000000000000000000000000000000000000000000000000000000081527fffffffffffffffffffffffffffffffffffffffffffffffffffffffffffffffec36013560601c6004820152336024820152604401610534565b604080517faf535ca90000000000000000000000000000000000000000000000000000000060208083019190915282518083039091018152818301928390527f468721a700000000000000000000000000000000000000000000000000000000909252600091339163468721a79161083e91309186916001906044016114ad565b6020604051808303816000875af115801561085d573d6000803e3d6000fd5b505050506040513d601f19601f82011682018060405250810190610881919061152a565b90508061089057600091505090565b6040517f160effb443ba769c230e1d94f3b068ccdfd8d9f3e37982b9d66a8ac15cd6de7590600090a1600191505090565b60006108cd83836105f7565b80519060200120905092915050565b73ffffffffffffffffffffffffffffffffffffffff7f00000000000000000000000000000000000000000000000000000000000000001630036109c7576040517f08c379a000000000000000000000000000000000000000000000000000000000815260206004820152604b60248201527f636c6561725361666553746f7261676544656c656761746543616c6c5265636960448201527f657665722073686f756c64206f6e6c792062652063616c6c656420766961206460648201527f656c656761746563616c6c000000000000000000000000000000000000000000608482015260a401610534565b6109cf610ae6565b565b6040517fcc2f845200000000000000000000000000000000000000000000000000000000815260016004820152600a60248201526060903390600090829063cc2f845290604401600060405180830381865afa158015610a35573d6000803e3d6000fd5b505050506040513d6000823e601f3d9081017fffffffffffffffffffffffffffffffffffffffffffffffffffffffffffffffe0168201604052610a7b919081019061155c565b509392505050565b60606040517fb4faba09000000000000000000000000000000000000000000000000000000008152600436036004808301376020600036836000335af1505060203d036040519150808201604052806020833e506000516105f057805160208201fd5b600080547fffffffffffffffffffffffff0000000000000000000000000000000000000000169055610b16610ba6565b610b1e610cbc565b600060038190556004819055600581905560068190557f6c9a6c4a39284e37ed1cf53d337577d14212a4870fb976a4366c693b939918d58190557f4a204f620c8c5ccdca3fd54d003badd85ba500436a431f0cbda4f558c93c34c881905560405130917f9fe882a15d23ea569936bd044460fe3a10f89eca83ee94d343ce024620eb28dc91a2565b600160008190526020527fcc69885fda6bcc1a4ace058b4a62bf5e179ea78fd58a1ccd71c22cc9b688792f5473ffffffffffffffffffffffffffffffffffffffff1680610bf05750565b60015b73ffffffffffffffffffffffffffffffffffffffff8216600114610c67575073ffffffffffffffffffffffffffffffffffffffff808216600090815260016020526040902080547fffffffffffffffffffffffff000000000000000000000000000000000000000081169091551690610bf3565b5050600160008190526020527fcc69885fda6bcc1a4ace058b4a62bf5e179ea78fd58a1ccd71c22cc9b688792f80547fffffffffffffffffffffffff0000000000000000000000000000000000000000169055565b600160005260026020527fe90b7bceb6e7df5418fb78d8ee546e97c83a08bbccc01a0644d599ccd2a7c2e05473ffffffffffffffffffffffffffffffffffffffff1680610d065750565b60015b73ffffffffffffffffffffffffffffffffffffffff8216600114610d7d575073ffffffffffffffffffffffffffffffffffffffff808216600090815260026020526040902080547fffffffffffffffffffffffff000000000000000000000000000000000000000081169091551690610d09565b5050600160005260026020527fe90b7bceb6e7df5418fb78d8ee546e97c83a08bbccc01a0644d599ccd2a7c2e080547fffffffffffffffffffffffff0000000000000000000000000000000000000000169055565b73ffffffffffffffffffffffffffffffffffffffff81168114610df457600080fd5b50565b60008083601f840112610e0957600080fd5b50813567ffffffffffffffff811115610e2157600080fd5b602083019150836020828501011115610e3957600080fd5b9250929050565b60008060008060008060008060c0898b031215610e5c57600080fd5b8835610e6781610dd2565b97506020890135610e7781610dd2565b96506040890135610e8781610dd2565b955060608901359450608089013567ffffffffffffffff811115610eaa57600080fd5b610eb68b828c01610df7565b90955093505060a089013567ffffffffffffffff811115610ed657600080fd5b610ee28b828c01610df7565b999c989b5096995094979396929594505050565b600060208284031215610f0857600080fd5b81357fffffffff00000000000000000000000000000000000000000000000000000000811681146105f057600080fd5b7f4e487b7100000000000000000000000000000000000000000000000000000000600052604160045260246000fd5b604051601f82017fffffffffffffffffffffffffffffffffffffffffffffffffffffffffffffffe016810167ffffffffffffffff81118282101715610fae57610fae610f38565b604052919050565b600082601f830112610fc757600080fd5b813567ffffffffffffffff811115610fe157610fe1610f38565b61101260207fffffffffffffffffffffffffffffffffffffffffffffffffffffffffffffffe0601f84011601610f67565b81815284602083860101111561102757600080fd5b816020850160208301376000918101602001919091529392505050565b60006020828403121561105657600080fd5b813567ffffffffffffffff81111561106d57600080fd5b61107984828501610fb6565b949350505050565b60008060008060006080868803121561109957600080fd5b85356110a481610dd2565b945060208601356110b481610dd2565b935060408601359250606086013567ffffffffffffffff8111156110d757600080fd5b6110e388828901610df7565b969995985093965092949392505050565b60008060006040848603121561110957600080fd5b83359250602084013567ffffffffffffffff81111561112757600080fd5b61113386828701610df7565b9497909650939450505050565b6000806040838503121561115357600080fd5b823561115e81610dd2565b9150602083013567ffffffffffffffff81111561117a57600080fd5b61118685828601610fb6565b9150509250929050565b6000815180845260005b818110156111b65760208185018101518683018201520161119a565b5060006020828601015260207fffffffffffffffffffffffffffffffffffffffffffffffffffffffffffffffe0601f83011685010191505092915050565b6020815260006105f06020830184611190565b602080825282518282018190526000918401906040840190835b8181101561123f578351835260209384019390920191600101611221565b509095945050505050565b602080825282518282018190526000918401906040840190835b8181101561123f57835173ffffffffffffffffffffffffffffffffffffffff16835260209384019390920191600101611264565b60008083601f8401126112aa57600080fd5b50813567ffffffffffffffff8111156112c257600080fd5b6020830191508360208260051b8501011115610e3957600080fd5b60008060008060008060008060a0898b0312156112f957600080fd5b883561130481610dd2565b9750602089013561131481610dd2565b9650604089013567ffffffffffffffff81111561133057600080fd5b61133c8b828c01611298565b909750955050606089013567ffffffffffffffff81111561135c57600080fd5b6113688b828c01611298565b909550935050608089013567ffffffffffffffff811115610ed657600080fd5b60008060006040848603121561139d57600080fd5b83356113a881610dd2565b9250602084013567ffffffffffffffff81111561112757600080fd5b60008060008060008060a087890312156113dd57600080fd5b86356113e881610dd2565b955060208701356113f881610dd2565b94506040870135935060608701359250608087013567ffffffffffffffff81111561142257600080fd5b61142e89828a01610df7565b979a9699509497509295939492505050565b60006020828403121561145257600080fd5b5051919050565b83815260406020820152816040820152818360608301376000818301606090810191909152601f9092017fffffffffffffffffffffffffffffffffffffffffffffffffffffffffffffffe016010192915050565b73ffffffffffffffffffffffffffffffffffffffff851681528360208201526080604082015260006114e26080830185611190565b90506002831061151b577f4e487b7100000000000000000000000000000000000000000000000000000000600052602160045260246000fd5b82606083015295945050505050565b60006020828403121561153c57600080fd5b815180151581146105f057600080fd5b805161155781610dd2565b919050565b6000806040838503121561156f57600080fd5b825167ffffffffffffffff81111561158657600080fd5b8301601f8101851361159757600080fd5b805167ffffffffffffffff8111156115b1576115b1610f38565b8060051b6115c160208201610f67565b918252602081840181019290810190888411156115dd57600080fd5b6020850194505b8385101561160b57845192506115f983610dd2565b828252602094850194909101906115e4565b809650505050505061161f6020840161154c565b9050925092905056fea2646970667358221220f5565a8c98cd4e0111078fe90591c19144b33eac375206bfa02a0a00fe62fb8c64736f6c634300081b0033",
  "devdoc": {
    "kind": "dev",
    "methods": {
      "encodeMessageDataForSafe(address,bytes)": {
        "details": "Returns the pre-image of the message hash (see getMessageHashForSafe).",
        "params": {
          "message": "Message that should be encoded.",
          "safe": "Safe to which the message is targeted."
        },
        "returns": {
          "_0": "Encoded message."
        }
      },
      "getMessageHash(bytes)": {
        "details": "Returns the hash of a message to be signed by owners.",
        "params": {
          "message": "Raw message bytes."
        },
        "returns": {
          "_0": "Message hash."
        }
      },
      "getMessageHashForSafe(address,bytes)": {
        "details": "Returns hash of a message that can be signed by owners.",
        "params": {
          "message": "Message that should be hashed.",
          "safe": "Safe to which the message is targeted."
        },
        "returns": {
          "_0": "Message hash."
        }
      },
      "getModules()": {
        "details": "Returns array of first 10 modules.",
        "returns": {
          "_0": "Array of modules."
        }
      },
      "isValidSignature(bytes32,bytes)": {
        "params": {
          "_dataHash": "Hash of the data signed on the behalf of address(msg.sender)",
          "_signature": "Signature byte array associated with _dataHash"
        },
        "returns": {
          "_0": "Updated EIP1271 magic value if signature is valid, otherwise 0x0"
        }
      },
      "simulate(address,bytes)": {
        "details": "Performs a delegatecall on a targetContract in the context of self. Internally reverts execution to avoid side effects (making it static). Catches revert and returns encoded result as bytes.Inspired by https://github.com/gnosis/util-contracts/blob/bb5fe5fb5df6d8400998094fb1b32a178a47c3a1/contracts/StorageAccessible.sol",
        "params": {
          "calldataPayload": "Calldata that should be sent to the target contract (encoded method name and arguments).",
          "targetContract": "Address of the contract containing the code to execute."
        }
      },
      "supportsInterface(bytes4)": {
        "params": {
          "interfaceId": "Id of the interface."
        },
        "returns": {
          "_0": "if the interface is supported."
        }
      }
    },
    "version": 1
  },
  "userdoc": {
    "kind": "user",
    "methods": {
      "isValidSignature(bytes32,bytes)": {
        "notice": "Implementation of updated EIP-1271 signature validation method."
      },
      "onERC1155BatchReceived(address,address,uint256[],uint256[],bytes)": {
        "notice": "Handles ERC1155 Token batch callback. return Standardized onERC1155BatchReceived return value."
      },
      "onERC1155Received(address,address,uint256,uint256,bytes)": {
        "notice": "Handles ERC1155 Token callback. return Standardized onERC1155Received return value."
      },
      "onERC721Received(address,address,uint256,bytes)": {
        "notice": "Handles ERC721 Token callback.  return Standardized onERC721Received return value."
      },
      "supportsInterface(bytes4)": {
        "notice": "Implements ERC165 interface support for ERC1155TokenReceiver, ERC721TokenReceiver and IERC165."
      },
      "tokensReceived(address,address,address,uint256,bytes,bytes)": {
        "notice": "Handles ERC777 Token callback. return nothing (not standardized)"
      }
    },
    "version": 1
  },
  "storageLayout": {
    "storage": [
      {
        "astId": 887,
        "contract": "contracts/IDAFallbackHandler.sol:IDAFallbackHandler",
        "label": "singleton",
        "offset": 0,
        "slot": "0",
        "type": "t_address"
      },
      {
        "astId": 891,
        "contract": "contracts/IDAFallbackHandler.sol:IDAFallbackHandler",
        "label": "modules",
        "offset": 0,
        "slot": "1",
        "type": "t_mapping(t_address,t_address)"
      },
      {
        "astId": 895,
        "contract": "contracts/IDAFallbackHandler.sol:IDAFallbackHandler",
        "label": "owners",
        "offset": 0,
        "slot": "2",
        "type": "t_mapping(t_address,t_address)"
      },
      {
        "astId": 897,
        "contract": "contracts/IDAFallbackHandler.sol:IDAFallbackHandler",
        "label": "ownerCount",
        "offset": 0,
        "slot": "3",
        "type": "t_uint256"
      },
      {
        "astId": 899,
        "contract": "contracts/IDAFallbackHandler.sol:IDAFallbackHandler",
        "label": "threshold",
        "offset": 0,
        "slot": "4",
        "type": "t_uint256"
      },
      {
        "astId": 901,
        "contract": "contracts/IDAFallbackHandler.sol:IDAFallbackHandler",
        "label": "nonce",
        "offset": 0,
        "slot": "5",
        "type": "t_uint256"
      },
      {
        "astId": 903,
        "contract": "contracts/IDAFallbackHandler.sol:IDAFallbackHandler",
        "label": "_deprecatedDomainSeparator",
        "offset": 0,
        "slot": "6",
        "type": "t_bytes32"
      },
      {
        "astId": 907,
        "contract": "contracts/IDAFallbackHandler.sol:IDAFallbackHandler",
        "label": "signedMessages",
        "offset": 0,
        "slot": "7",
        "type": "t_mapping(t_bytes32,t_uint256)"
      },
      {
        "astId": 913,
        "contract": "contracts/IDAFallbackHandler.sol:IDAFallbackHandler",
        "label": "approvedHashes",
        "offset": 0,
        "slot": "8",
        "type": "t_mapping(t_address,t_mapping(t_bytes32,t_uint256))"
      }
    ],
    "types": {
      "t_address": {
        "encoding": "inplace",
        "label": "address",
        "numberOfBytes": "20"
      },
      "t_bytes32": {
        "encoding": "inplace",
        "label": "bytes32",
        "numberOfBytes": "32"
      },
      "t_mapping(t_address,t_address)": {
        "encoding": "mapping",
        "key": "t_address",
        "label": "mapping(address => address)",
        "numberOfBytes": "32",
        "value": "t_address"
      },
      "t_mapping(t_address,t_mapping(t_bytes32,t_uint256))": {
        "encoding": "mapping",
        "key": "t_address",
        "label": "mapping(address => mapping(bytes32 => uint256))",
        "numberOfBytes": "32",
        "value": "t_mapping(t_bytes32,t_uint256)"
      },
      "t_mapping(t_bytes32,t_uint256)": {
        "encoding": "mapping",
        "key": "t_bytes32",
        "label": "mapping(bytes32 => uint256)",
        "numberOfBytes": "32",
        "value": "t_uint256"
      },
      "t_uint256": {
        "encoding": "inplace",
        "label": "uint256",
        "numberOfBytes": "32"
      }
    }
  }
}